{
  "_format": "hh-sol-artifact-1",
  "contractName": "StakingReverter",
  "sourceName": "solidity/precompiles/testutil/contracts/StakingReverter.sol",
  "abi": [
    {
      "inputs": [],
      "stateMutability": "payable",
      "type": "constructor"
    },
    {
      "inputs": [
        {
          "internalType": "uint256",
          "name": "numTimes",
          "type": "uint256"
        },
        {
          "internalType": "string",
          "name": "validatorAddress",
          "type": "string"
        }
      ],
      "name": "callPrecompileBeforeAndAfterRevert",
      "outputs": [],
      "stateMutability": "nonpayable",
      "type": "function"
    },
    {
      "inputs": [
        {
          "internalType": "string",
          "name": "validatorAddress",
          "type": "string"
        }
      ],
      "name": "getCurrentStake",
      "outputs": [
        {
          "internalType": "uint256",
          "name": "shares",
          "type": "uint256"
        },
        {
          "components": [
            {
              "internalType": "string",
              "name": "denom",
              "type": "string"
            },
            {
              "internalType": "uint256",
              "name": "amount",
              "type": "uint256"
            }
          ],
          "internalType": "struct Coin",
          "name": "balance",
          "type": "tuple"
        }
      ],
      "stateMutability": "view",
      "type": "function"
    },
    {
      "inputs": [
        {
          "internalType": "uint256",
          "name": "numTimes",
          "type": "uint256"
        }
      ],
      "name": "multipleDelegations",
      "outputs": [],
      "stateMutability": "nonpayable",
      "type": "function"
    },
    {
      "inputs": [
        {
          "internalType": "uint256",
          "name": "numTimes",
          "type": "uint256"
        },
        {
          "internalType": "address",
          "name": "validatorAddress",
          "type": "address"
        }
      ],
      "name": "multipleQueries",
      "outputs": [
        {
          "components": [
            {
              "internalType": "string",
              "name": "operatorAddress",
              "type": "string"
            },
            {
              "internalType": "string",
              "name": "consensusPubkey",
              "type": "string"
            },
            {
              "internalType": "bool",
              "name": "jailed",
              "type": "bool"
            },
            {
              "internalType": "enum BondStatus",
              "name": "status",
              "type": "uint8"
            },
            {
              "internalType": "uint256",
              "name": "tokens",
              "type": "uint256"
            },
            {
              "internalType": "uint256",
              "name": "delegatorShares",
              "type": "uint256"
            },
            {
              "internalType": "string",
              "name": "description",
              "type": "string"
            },
            {
              "internalType": "int64",
              "name": "unbondingHeight",
              "type": "int64"
            },
            {
              "internalType": "int64",
              "name": "unbondingTime",
              "type": "int64"
            },
            {
              "internalType": "uint256",
              "name": "commission",
              "type": "uint256"
            },
            {
              "internalType": "uint256",
              "name": "minSelfDelegation",
              "type": "uint256"
            }
          ],
          "internalType": "struct Validator",
          "name": "validator",
          "type": "tuple"
        }
      ],
      "stateMutability": "view",
      "type": "function"
    },
    {
      "inputs": [
        {
          "internalType": "string",
          "name": "validatorAddress",
          "type": "string"
        }
      ],
      "name": "performDelegation",
      "outputs": [],
      "stateMutability": "nonpayable",
      "type": "function"
    },
    {
      "inputs": [
        {
          "internalType": "uint256",
          "name": "numTimes",
          "type": "uint256"
        },
        {
          "internalType": "string",
          "name": "validatorAddress",
          "type": "string"
        }
      ],
      "name": "run",
      "outputs": [],
      "stateMutability": "nonpayable",
      "type": "function"
    }
  ],
  "bytecode": "0x6080604052600080556111e9806100176000396000f3fe608060405234801561001057600080fd5b50600436106100625760003560e01c80634e5a8fe514610067578063668f452b14610083578063922a4b67146100b4578063c6db1ad9146100d0578063cbc367d4146100ec578063f66013d71461011c575b600080fd5b610081600480360381019061007c919061072f565b610138565b005b61009d6004803603810190610098919061078f565b6101da565b6040516100ab9291906108c7565b60405180910390f35b6100ce60048036038101906100c9919061072f565b610274565b005b6100ea60048036038101906100e591906108f7565b61040b565b005b61010660048036038101906101019190610982565b6104b8565b6040516101139190610b6d565b60405180910390f35b6101366004803603810190610131919061078f565b610568565b005b60008081548092919061014a90610bbe565b919050555060005b838110156101d4573073ffffffffffffffffffffffffffffffffffffffff1663f66013d784846040518363ffffffff1660e01b8152600401610195929190610c53565b600060405180830381600087803b1580156101af57600080fd5b505af19250505080156101c0575060015b5080806101cc90610bbe565b915050610152565b50505050565b60006101e46105f2565b61080073ffffffffffffffffffffffffffffffffffffffff1663241774e63086866040518463ffffffff1660e01b815260040161022393929190610c86565b600060405180830381865afa158015610240573d6000803e3d6000fd5b505050506040513d6000823e3d601f19601f820116820180604052508101906102699190610e64565b915091509250929050565b61080073ffffffffffffffffffffffffffffffffffffffff166353266bbb308484600a6040518563ffffffff1660e01b81526004016102b69493929190610f05565b6020604051808303816000875af11580156102d5573d6000803e3d6000fd5b505050506040513d601f19601f820116820180604052508101906102f99190610f71565b5060005b8381101561037f573073ffffffffffffffffffffffffffffffffffffffff1663f66013d784846040518363ffffffff1660e01b8152600401610340929190610c53565b600060405180830381600087803b15801561035a57600080fd5b505af192505050801561036b575060015b50808061037790610bbe565b9150506102fd565b5061080073ffffffffffffffffffffffffffffffffffffffff166353266bbb308484600a6040518563ffffffff1660e01b81526004016103c29493929190610f05565b6020604051808303816000875af11580156103e1573d6000803e3d6000fd5b505050506040513d601f19601f820116820180604052508101906104059190610f71565b50505050565b60008081548092919061041d90610bbe565b919050555060005b818110156104b45761080073ffffffffffffffffffffffffffffffffffffffff1663c29855786040518163ffffffff1660e01b81526004016020604051808303816000875af115801561047c573d6000803e3d6000fd5b505050506040513d601f19601f820116820180604052508101906104a09190610f71565b5080806104ac90610bbe565b915050610425565b5050565b6104c061060c565b60005b838110156105615761080073ffffffffffffffffffffffffffffffffffffffff1663223b3b7a846040518263ffffffff1660e01b81526004016105069190610f9e565b600060405180830381865afa158015610523573d6000803e3d6000fd5b505050506040513d6000823e3d601f19601f8201168201806040525081019061054c919061116a565b9150808061055990610bbe565b9150506104c3565b5092915050565b61080073ffffffffffffffffffffffffffffffffffffffff166353266bbb308484600a6040518563ffffffff1660e01b81526004016105aa9493929190610f05565b6020604051808303816000875af11580156105c9573d6000803e3d6000fd5b505050506040513d601f19601f820116820180604052508101906105ed9190610f71565b600080fd5b604051806040016040528060608152602001600081525090565b604051806101600160405280606081526020016060815260200160001515815260200160006003811115610643576106426109dd565b5b8152602001600081526020016000815260200160608152602001600060070b8152602001600060070b815260200160008152602001600081525090565b6000604051905090565b600080fd5b600080fd5b6000819050919050565b6106a781610694565b81146106b257600080fd5b50565b6000813590506106c48161069e565b92915050565b600080fd5b600080fd5b600080fd5b60008083601f8401126106ef576106ee6106ca565b5b8235905067ffffffffffffffff81111561070c5761070b6106cf565b5b602083019150836001820283011115610728576107276106d4565b5b9250929050565b6000806000604084860312156107485761074761068a565b5b6000610756868287016106b5565b935050602084013567ffffffffffffffff8111156107775761077661068f565b5b610783868287016106d9565b92509250509250925092565b600080602083850312156107a6576107a561068a565b5b600083013567ffffffffffffffff8111156107c4576107c361068f565b5b6107d0858286016106d9565b92509250509250929050565b6107e581610694565b82525050565b600081519050919050565b600082825260208201905092915050565b60005b8381101561082557808201518184015260208101905061080a565b60008484015250505050565b6000601f19601f8301169050919050565b600061084d826107eb565b61085781856107f6565b9350610867818560208601610807565b61087081610831565b840191505092915050565b61088481610694565b82525050565b600060408301600083015184820360008601526108a78282610842565b91505060208301516108bc602086018261087b565b508091505092915050565b60006040820190506108dc60008301856107dc565b81810360208301526108ee818461088a565b90509392505050565b60006020828403121561090d5761090c61068a565b5b600061091b848285016106b5565b91505092915050565b600073ffffffffffffffffffffffffffffffffffffffff82169050919050565b600061094f82610924565b9050919050565b61095f81610944565b811461096a57600080fd5b50565b60008135905061097c81610956565b92915050565b600080604083850312156109995761099861068a565b5b60006109a7858286016106b5565b92505060206109b88582860161096d565b9150509250929050565b60008115159050919050565b6109d7816109c2565b82525050565b7f4e487b7100000000000000000000000000000000000000000000000000000000600052602160045260246000fd5b60048110610a1d57610a1c6109dd565b5b50565b6000819050610a2e82610a0c565b919050565b6000610a3e82610a20565b9050919050565b610a4e81610a33565b82525050565b60008160070b9050919050565b610a6a81610a54565b82525050565b6000610160830160008301518482036000860152610a8e8282610842565b91505060208301518482036020860152610aa88282610842565b9150506040830151610abd60408601826109ce565b506060830151610ad06060860182610a45565b506080830151610ae3608086018261087b565b5060a0830151610af660a086018261087b565b5060c083015184820360c0860152610b0e8282610842565b91505060e0830151610b2360e0860182610a61565b50610100830151610b38610100860182610a61565b50610120830151610b4d61012086018261087b565b50610140830151610b6261014086018261087b565b508091505092915050565b60006020820190508181036000830152610b878184610a70565b905092915050565b7f4e487b7100000000000000000000000000000000000000000000000000000000600052601160045260246000fd5b6000610bc982610694565b91507fffffffffffffffffffffffffffffffffffffffffffffffffffffffffffffffff8203610bfb57610bfa610b8f565b5b600182019050919050565b600082825260208201905092915050565b82818337600083830152505050565b6000610c328385610c06565b9350610c3f838584610c17565b610c4883610831565b840190509392505050565b60006020820190508181036000830152610c6e818486610c26565b90509392505050565b610c8081610944565b82525050565b6000604082019050610c9b6000830186610c77565b8181036020830152610cae818486610c26565b9050949350505050565b600081519050610cc78161069e565b92915050565b600080fd5b7f4e487b7100000000000000000000000000000000000000000000000000000000600052604160045260246000fd5b610d0a82610831565b810181811067ffffffffffffffff82111715610d2957610d28610cd2565b5b80604052505050565b6000610d3c610680565b9050610d488282610d01565b919050565b600080fd5b600080fd5b600067ffffffffffffffff821115610d7257610d71610cd2565b5b610d7b82610831565b9050602081019050919050565b6000610d9b610d9684610d57565b610d32565b905082815260208101848484011115610db757610db6610d52565b5b610dc2848285610807565b509392505050565b600082601f830112610ddf57610dde6106ca565b5b8151610def848260208601610d88565b91505092915050565b600060408284031215610e0e57610e0d610ccd565b5b610e186040610d32565b9050600082015167ffffffffffffffff811115610e3857610e37610d4d565b5b610e4484828501610dca565b6000830152506020610e5884828501610cb8565b60208301525092915050565b60008060408385031215610e7b57610e7a61068a565b5b6000610e8985828601610cb8565b925050602083015167ffffffffffffffff811115610eaa57610ea961068f565b5b610eb685828601610df8565b9150509250929050565b6000819050919050565b6000819050919050565b6000610eef610eea610ee584610ec0565b610eca565b610694565b9050919050565b610eff81610ed4565b82525050565b6000606082019050610f1a6000830187610c77565b8181036020830152610f2d818587610c26565b9050610f3c6040830184610ef6565b95945050505050565b610f4e816109c2565b8114610f5957600080fd5b50565b600081519050610f6b81610f45565b92915050565b600060208284031215610f8757610f8661068a565b5b6000610f9584828501610f5c565b91505092915050565b6000602082019050610fb36000830184610c77565b92915050565b60048110610fc657600080fd5b50565b600081519050610fd881610fb9565b92915050565b610fe781610a54565b8114610ff257600080fd5b50565b60008151905061100481610fde565b92915050565b6000610160828403121561102157611020610ccd565b5b61102c610160610d32565b9050600082015167ffffffffffffffff81111561104c5761104b610d4d565b5b61105884828501610dca565b600083015250602082015167ffffffffffffffff81111561107c5761107b610d4d565b5b61108884828501610dca565b602083015250604061109c84828501610f5c565b60408301525060606110b084828501610fc9565b60608301525060806110c484828501610cb8565b60808301525060a06110d884828501610cb8565b60a08301525060c082015167ffffffffffffffff8111156110fc576110fb610d4d565b5b61110884828501610dca565b60c08301525060e061111c84828501610ff5565b60e08301525061010061113184828501610ff5565b6101008301525061012061114784828501610cb8565b6101208301525061014061115d84828501610cb8565b6101408301525092915050565b6000602082840312156111805761117f61068a565b5b600082015167ffffffffffffffff81111561119e5761119d61068f565b5b6111aa8482850161100a565b9150509291505056fea264697066735822122046a010f2a99f5548ceecef0d97df63a883c500b99e49941723b73107711b0ace64736f6c63430008140033",
  "linkReferences": {},
  "deployedLinkReferences": {}
}